:020000040000FA
:060000000A128A11D62F3E
:100CFC00093404340434831603138813081388123C
:100D0C00081283120313881308138816081208009C
:100D1C004034C03480349034103430342034603457
:100D2C000034203410348034403440348034103457
:100D3C0020347E088A007F0882000A128A119F26BE
:100D4C000A128A118000840A04087D0603190034F3
:100D5C00FF0A0319FE0AA32EC02EC730F200B62ECE
:100D6C00F20BB52EB92EBA2E0130F0020030031C56
:100D7C00F103F10270087104031DC52EC62EB32EAB
:100D8C00080083120313B301B401E62E831203137C
:100D9C0033080339293E8400831300088800760841
:100DAC00F1007508F0000A128A11B2260A128A1193
:100DBC00013083120313B3070318B40A0030B407CD
:100DCC003408803AF7007408803A7702031DF02E3D
:100DDC0073083302031CF32EF42ECC2E080083125E
:100DEC000313B101B201142F831203133108073915
:100DFC00203E84008313000888007608F1007508F3
:100E0C00F0000A128A11B2260A128A1101308312DA
:100E1C000313B1070318B20A0030B2073208803A44
:100E2C00F7007408803A7702031D1E2F73083102F5
:100E3C00031C212F222FFA2E080083120313B50155
:100E4C00B601422F83120313350803392D3E84005B
:100E5C008313000888007608F1007508F0000A1268
:100E6C008A11B2260A128A11013083120313B507B4
:100E7C000318B60A0030B6073608803AF700740833
:100E8C00803A7702031D4C2F73083502031C4F2F39
:100E9C00502F282F0800F801F9010A128A11812617
:100EAC000A128A11BA2F0130F8000030F900BA2F5B
:100EBC0083120313081C632F642F682F0230F80071
:100ECC000030F900881C6B2F6C2F702F0330F8004A
:100EDC000030F900081D732F742FBA2F0530F8005D
:100EEC000030F900BA2F3030F3000030F4006430D9
:100EFC00F5000030F6000A128A1123270A128A1113
:100F0C0083120313881C8B2F8C2FBA2F0430F800FC
:100F1C000030F900BA2F3030F3000030F4006430A8
:100F2C00F5000030F6000A128A11C7260A128A113F
:100F3C0083120313881CA32FA42FBA2F8C2F831278
:100F4C0003138818AA2FAB2FBA2F592F1E30F3007A
:100F5C000030F400E830F5000330F6000A128A1174
:100F6C00F5260A128A11BA2F7908003A0319BF2FF5
:100F7C00BA2F7808003A0319592F013A03195E2F3A
:100F8C00033A0319792F013A0319912F073A0319E0
:100F9C00A52F013A0319AC2FBA2F0A128A11002877
:100FAC0083133130FD000630FE008E30FF00203000
:100FBC0084000A128A11A3260A128A110A128A11B3
:100FCC007E260A128A11FA000A128A117F260A1248
:100FDC008A11FB000A128A1180260A128A11FC005F
:100FEC00B101B201B301B401B501B60183010A121A
:040FFC008A11512FD6
:04400E00D420FF3F7C
:00000001FF
