:020000040000FA
:060000000A128A11DE2F36
:100D88000434043420341034803440344034803403
:100D9800103420348316031388130813881208129A
:100DA80083120313881308138816081208007E0894
:100DB8008A007F0882000A128A11DB260A128A1129
:100DC8008000840A04087D0603190034FF0A031909
:100DD800FE0ADF2EFD2EC730F200F22EF20BF12EA6
:100DE800F52EF62E0130F0020030031CF103F1025B
:100DF800FD2E70087104031D022F032FEF2E042F00
:100E08000800FA01FB01212F7A080339243E8400E7
:100E1800831300088312031388007608F10075080D
:100E2800F0000A128A11EE260A128A110130FA0716
:100E38000318FB0A0030FB07212F7B08803AF700D4
:100E48007408803A7702031D2B2F73087A02031C5B
:100E58002E2F2F2F082F302F080083120313A801DD
:100E6800A901512F8312031328080339203E840057
:100E78008313000888007608F1007508F0000A124C
:100E88008A11EE260A128A11013083120313A80769
:100E98000318A90A0030A907512F2908803AF7003A
:100EA8007408803A7702031D5B2F73082802031C1D
:100EB8005E2F5F2F362F602F0800F801F9010A1204
:100EC8008A11CE260A128A11C32FC32F0130F800C7
:100ED8000030F900C32F83120313081C742F752FD9
:100EE8007A2F0230F8000030F9007A2F881C7D2F05
:100EF8007E2FC32F0330F8000030F900C32FC32F13
:100F08003030F3000030F4006430F5000030F600B3
:100F18000A128A1105270A128A1183120313881CE0
:100F2800962F972FC32F0430F8000030F900C32FF5
:100F3800C32F3030F3000030F4006430F500003087
:100F4800F6000A128A1131270A128A118312031332
:100F5800881CAF2FB02FC32F0430F8000030F900E1
:100F6800C32FC32F831203138818BB2FBC2FC32F83
:100F78000130F8000030F900C32FC32FC32F7908C0
:100F8800003A0319C82FC32F7808003A03196A2FAB
:100F9800013A03196F2F033A0319842F013A0319F1
:100FA8009D2F073A0319B62FC32FC32FC32F0A1239
:100FB8008A11002883132830FD000630FE00C63051
:100FC800FF00203084000A128A11DF260A128A11D3
:100FD8000A128A11C4260A128A11FC000A128A11FE
:100FE800C5260A128A11FD00A801A901FA01FB0110
:080FF80083010A128A11612F26
:04400E00D4E0FFFFFC
:00000001FF
